{"address":"0x5FbDB2315678afecb367f032d93F642f64180aa3","bytecode":"0x608060405234801561001057600080fd5b50615e1280620000216000396000f3fe608060405234801561001057600080fd5b50600436106101165760003560e01c80637d7c2a1c116100a2578063b6b55f2511610071578063b6b55f2514610538578063bd6d894d14610566578063c0c53b8b14610584578063dd62ed3e14610608578063fc0c546a1461068057610116565b80637d7c2a1c146103e357806395d89b41146103ed578063a457c2d714610470578063a9059cbb146104d457610116565b80632e1a7d4d116100e95780632e1a7d4d146102a4578063313ce567146102d257806339509351146102f357806369e527da1461035757806370a082311461038b57610116565b806306fdde031461011b578063095ea7b31461019e57806318160ddd1461020257806323b872dd14610220575b600080fd5b6101236106b4565b6040518080602001828103825283818151815260200191508051906020019080838360005b83811015610163578082015181840152602081019050610148565b50505050905090810190601f1680156101905780820380516001836020036101000a031916815260200191505b509250505060405180910390f35b6101ea600480360360408110156101b457600080fd5b81019080803573ffffffffffffffffffffffffffffffffffffffff16906020019092919080359060200190929190505050610756565b60405180821515815260200191505060405180910390f35b61020a610774565b6040518082815260200191505060405180910390f35b61028c6004803603606081101561023657600080fd5b81019080803573ffffffffffffffffffffffffffffffffffffffff169060200190929190803573ffffffffffffffffffffffffffffffffffffffff1690602001909291908035906020019092919050505061077e565b60405180821515815260200191505060405180910390f35b6102d0600480360360208110156102ba57600080fd5b8101908080359060200190929190505050610857565b005b6102da610af8565b604051808260ff16815260200191505060405180910390f35b61033f6004803603604081101561030957600080fd5b81019080803573ffffffffffffffffffffffffffffffffffffffff16906020019092919080359060200190929190505050610b0f565b60405180821515815260200191505060405180910390f35b61035f610bc2565b604051808273ffffffffffffffffffffffffffffffffffffffff16815260200191505060405180910390f35b6103cd600480360360208110156103a157600080fd5b81019080803573ffffffffffffffffffffffffffffffffffffffff169060200190929190505050610be8565b6040518082815260200191505060405180910390f35b6103eb610c31565b005b6103f5610d1b565b6040518080602001828103825283818151815260200191508051906020019080838360005b8381101561043557808201518184015260208101905061041a565b50505050905090810190601f1680156104625780820380516001836020036101000a031916815260200191505b509250505060405180910390f35b6104bc6004803603604081101561048657600080fd5b81019080803573ffffffffffffffffffffffffffffffffffffffff16906020019092919080359060200190929190505050610dbd565b60405180821515815260200191505060405180910390f35b610520600480360360408110156104ea57600080fd5b81019080803573ffffffffffffffffffffffffffffffffffffffff16906020019092919080359060200190929190505050610e8a565b60405180821515815260200191505060405180910390f35b6105646004803603602081101561054e57600080fd5b8101908080359060200190929190505050610ea8565b005b61056e611268565b6040518082815260200191505060405180910390f35b6106066004803603606081101561059a57600080fd5b81019080803573ffffffffffffffffffffffffffffffffffffffff169060200190929190803573ffffffffffffffffffffffffffffffffffffffff169060200190929190803573ffffffffffffffffffffffffffffffffffffffff1690602001909291905050506113d6565b005b61066a6004803603604081101561061e57600080fd5b81019080803573ffffffffffffffffffffffffffffffffffffffff169060200190929190803573ffffffffffffffffffffffffffffffffffffffff169060200190929190505050611ab4565b6040518082815260200191505060405180910390f35b610688611b3b565b604051808273ffffffffffffffffffffffffffffffffffffffff16815260200191505060405180910390f35b6060603e8054600181600116156101000203166002900480601f01602080910402602001604051908101604052809291908181526020018280546001816001161561010002031660029004801561074c5780601f106107215761010080835404028352916020019161074c565b820191906000526020600020905b81548152906001019060200180831161072f57829003601f168201915b5050505050905090565b600061076a610763611b5f565b8484611b67565b6001905092915050565b6000603d54905090565b600061078b848484611d5e565b61084c84610797611b5f565b61084785604051806060016040528060288152602001615cab60289139603c60008b73ffffffffffffffffffffffffffffffffffffffff1673ffffffffffffffffffffffffffffffffffffffff16815260200190815260200160002060006107fd611b5f565b73ffffffffffffffffffffffffffffffffffffffff1673ffffffffffffffffffffffffffffffffffffffff168152602001908152602001600020546120239092919063ffffffff16565b611b67565b600190509392505050565b60008060009054906101000a900473ffffffffffffffffffffffffffffffffffffffff1673ffffffffffffffffffffffffffffffffffffffff1663313ce5676040518163ffffffff1660e01b815260040160206040518083038186803b1580156108c057600080fd5b505afa1580156108d4573d6000803e3d6000fd5b505050506040513d60208110156108ea57600080fd5b810190808051906020019092919050505060120360ff169050600061090d611268565b9050600061093983600a0a61092b84876120dd90919063ffffffff16565b61216390919063ffffffff16565b905061097a826040518060400160405280600d81526020017f65786368616e67652072617465000000000000000000000000000000000000008152506121ad565b6109c161098633610be8565b6040518060400160405280600e81526020017f53656e6465722042616c616e63650000000000000000000000000000000000008152506121ad565b610a00816040518060400160405280601181526020017f5769746864726177616c20416d6f756e740000000000000000000000000000008152506121ad565b610a0933610be8565b8110610a60576040517f08c379a000000000000000000000000000000000000000000000000000000000815260040180806020018281038252603d815260200180615a87603d913960400191505060405180910390fd5b610a9e6040518060400160405280601181526020017f4c657373207468616e2062616c616e63650000000000000000000000000000008152506122b4565b610aa7846123b2565b610af2338560008054906101000a900473ffffffffffffffffffffffffffffffffffffffff1673ffffffffffffffffffffffffffffffffffffffff166128779092919063ffffffff16565b50505050565b6000604060009054906101000a900460ff16905090565b6000610bb8610b1c611b5f565b84610bb385603c6000610b2d611b5f565b73ffffffffffffffffffffffffffffffffffffffff1673ffffffffffffffffffffffffffffffffffffffff16815260200190815260200160002060008973ffffffffffffffffffffffffffffffffffffffff1673ffffffffffffffffffffffffffffffffffffffff1681526020019081526020016000205461291990919063ffffffff16565b611b67565b6001905092915050565b600160009054906101000a900473ffffffffffffffffffffffffffffffffffffffff1681565b6000603b60008373ffffffffffffffffffffffffffffffffffffffff1673ffffffffffffffffffffffffffffffffffffffff168152602001908152602001600020549050919050565b600073ffffffffffffffffffffffffffffffffffffffff163373ffffffffffffffffffffffffffffffffffffffff161415610cb7576040517f08c379a000000000000000000000000000000000000000000000000000000000815260040180806020018281038252603b815260200180615b5b603b913960400191505060405180910390fd5b610cfd6040518060400160405280600f81526020017f496e697469616c2042616c616e63650000000000000000000000000000000000815250610cf86129a1565b612a60565b60006005541115610d1157610d10612b67565b5b610d19612e60565b565b6060603f8054600181600116156101000203166002900480601f016020809104026020016040519081016040528092919081815260200182805460018160011615610100020316600290048015610db35780601f10610d8857610100808354040283529160200191610db3565b820191906000526020600020905b815481529060010190602001808311610d9657829003601f168201915b5050505050905090565b6000610e80610dca611b5f565b84610e7b85604051806060016040528060258152602001615db860259139603c6000610df4611b5f565b73ffffffffffffffffffffffffffffffffffffffff1673ffffffffffffffffffffffffffffffffffffffff16815260200190815260200160002060008a73ffffffffffffffffffffffffffffffffffffffff1673ffffffffffffffffffffffffffffffffffffffff168152602001908152602001600020546120239092919063ffffffff16565b611b67565b6001905092915050565b6000610e9e610e97611b5f565b8484611d5e565b6001905092915050565b60008060009054906101000a900473ffffffffffffffffffffffffffffffffffffffff1673ffffffffffffffffffffffffffffffffffffffff1663313ce5676040518163ffffffff1660e01b815260040160206040518083038186803b158015610f1157600080fd5b505afa158015610f25573d6000803e3d6000fd5b505050506040513d6020811015610f3b57600080fd5b810190808051906020019092919050505060ff16905060008160200390506000600360009054906101000a900473ffffffffffffffffffffffffffffffffffffffff1673ffffffffffffffffffffffffffffffffffffffff1663128016b6600460009054906101000a900473ffffffffffffffffffffffffffffffffffffffff1660008054906101000a900473ffffffffffffffffffffffffffffffffffffffff166040518363ffffffff1660e01b8152600401808373ffffffffffffffffffffffffffffffffffffffff1681526020018273ffffffffffffffffffffffffffffffffffffffff16815260200192505050602060405180830381600087803b15801561104657600080fd5b505af115801561105a573d6000803e3d6000fd5b505050506040513d602081101561107057600080fd5b810190808051906020019092919050505090506101f46110c384600a0a6110b5876110a787600a0a8761216390919063ffffffff16565b6120dd90919063ffffffff16565b61216390919063ffffffff16565b101561111a576040517f08c379a0000000000000000000000000000000000000000000000000000000008152600401808060200182810382526030815260200180615be16030913960400191505060405180910390fd5b61116733308660008054906101000a900473ffffffffffffffffffffffffffffffffffffffff1673ffffffffffffffffffffffffffffffffffffffff16613065909392919063ffffffff16565b60008060009054906101000a900473ffffffffffffffffffffffffffffffffffffffff1673ffffffffffffffffffffffffffffffffffffffff1663313ce5676040518163ffffffff1660e01b815260040160206040518083038186803b1580156111d057600080fd5b505afa1580156111e4573d6000803e3d6000fd5b505050506040513d60208110156111fa57600080fd5b810190808051906020019092919050505060120360ff169050600061121d611268565b9050856005600082825401925050819055506112603361125b84600a0a61124d858b6120dd90919063ffffffff16565b61216390919063ffffffff16565b613126565b505050505050565b60008060008054906101000a900473ffffffffffffffffffffffffffffffffffffffff1673ffffffffffffffffffffffffffffffffffffffff1663313ce5676040518163ffffffff1660e01b815260040160206040518083038186803b1580156112d157600080fd5b505afa1580156112e5573d6000803e3d6000fd5b505050506040513d60208110156112fb57600080fd5b810190808051906020019092919050505060120360ff169050600061136a82600a0a61135c61134b600160009054906101000a900473ffffffffffffffffffffffffffffffffffffffff166132ef565b60055461339c90919063ffffffff16565b6120dd90919063ffffffff16565b90506000611376610774565b905060008214806113875750600081145b156113a0576802b5e3af16b188000093505050506113d3565b6113cd816113bf670de0b6b3a7640000856120dd90919063ffffffff16565b61216390919063ffffffff16565b93505050505b90565b600860009054906101000a900460ff1615611459576040517f08c379a000000000000000000000000000000000000000000000000000000000815260040180806020018281038252601c8152602001807f436f6e747261637420616c726561647920696e697469616c697a65640000000081525060200191505060405180910390fd5b6001600860006101000a81548160ff0219169083151502179055506118468373ffffffffffffffffffffffffffffffffffffffff166306fdde036040518163ffffffff1660e01b815260040160006040518083038186803b1580156114bd57600080fd5b505afa1580156114d1573d6000803e3d6000fd5b505050506040513d6000823e3d601f19601f8201168201806040525060208110156114fb57600080fd5b810190808051604051939291908464010000000082111561151b57600080fd5b8382019150602082018581111561153157600080fd5b825186600182028301116401000000008211171561154e57600080fd5b8083526020830192505050908051906020019080838360005b83811015611582578082015181840152602081019050611567565b50505050905090810190601f1680156115af5780820380516001836020036101000a031916815260200191505b5060405250505060405160200180807f526172692054616e6b2000000000000000000000000000000000000000000000815250600a0182805190602001908083835b6020831061161457805182526020820191506020810190506020830392506115f1565b6001836020036101000a0380198251168184511680821785525050505050509050019150506040516020818303038152906040528473ffffffffffffffffffffffffffffffffffffffff166395d89b416040518163ffffffff1660e01b815260040160006040518083038186803b15801561168e57600080fd5b505afa1580156116a2573d6000803e3d6000fd5b505050506040513d6000823e3d601f19601f8201168201806040525060208110156116cc57600080fd5b81019080805160405193929190846401000000008211156116ec57600080fd5b8382019150602082018581111561170257600080fd5b825186600182028301116401000000008211171561171f57600080fd5b8083526020830192505050908051906020019080838360005b83811015611753578082015181840152602081019050611738565b50505050905090810190601f1680156117805780820380516001836020036101000a031916815260200191505b5060405250505060405160200180807f7274742d0000000000000000000000000000000000000000000000000000000081525060040182805190602001908083835b602083106117e557805182526020820191506020810190506020830392506117c2565b6001836020036101000a038019825116818451168082178552505050505050905001807f2d55534443000000000000000000000000000000000000000000000000000000815250600501915050604051602081830303815290604052613424565b826000806101000a81548173ffffffffffffffffffffffffffffffffffffffff021916908373ffffffffffffffffffffffffffffffffffffffff16021790555081600460006101000a81548173ffffffffffffffffffffffffffffffffffffffff021916908373ffffffffffffffffffffffffffffffffffffffff16021790555080600360006101000a81548173ffffffffffffffffffffffffffffffffffffffff021916908373ffffffffffffffffffffffffffffffffffffffff1602179055508173ffffffffffffffffffffffffffffffffffffffff166331ff47fa846040518263ffffffff1660e01b8152600401808273ffffffffffffffffffffffffffffffffffffffff16815260200191505060206040518083038186803b15801561196f57600080fd5b505afa158015611983573d6000803e3d6000fd5b505050506040513d602081101561199957600080fd5b8101908080519060200190929190505050600160006101000a81548173ffffffffffffffffffffffffffffffffffffffff021916908373ffffffffffffffffffffffffffffffffffffffff160217905550600073ffffffffffffffffffffffffffffffffffffffff16600160009054906101000a900473ffffffffffffffffffffffffffffffffffffffff1673ffffffffffffffffffffffffffffffffffffffff161415611aaf576040517f08c379a00000000000000000000000000000000000000000000000000000000081526004018080602001828103825260118152602001807f556e737570706f7274656420617373657400000000000000000000000000000081525060200191505060405180910390fd5b505050565b6000603c60008473ffffffffffffffffffffffffffffffffffffffff1673ffffffffffffffffffffffffffffffffffffffff16815260200190815260200160002060008373ffffffffffffffffffffffffffffffffffffffff1673ffffffffffffffffffffffffffffffffffffffff16815260200190815260200160002054905092915050565b60008054906101000a900473ffffffffffffffffffffffffffffffffffffffff1681565b600033905090565b600073ffffffffffffffffffffffffffffffffffffffff168373ffffffffffffffffffffffffffffffffffffffff161415611bed576040517f08c379a0000000000000000000000000000000000000000000000000000000008152600401808060200182810382526024815260200180615d1b6024913960400191505060405180910390fd5b600073ffffffffffffffffffffffffffffffffffffffff168273ffffffffffffffffffffffffffffffffffffffff161415611c73576040517f08c379a0000000000000000000000000000000000000000000000000000000008152600401808060200182810382526022815260200180615a656022913960400191505060405180910390fd5b80603c60008573ffffffffffffffffffffffffffffffffffffffff1673ffffffffffffffffffffffffffffffffffffffff16815260200190815260200160002060008473ffffffffffffffffffffffffffffffffffffffff1673ffffffffffffffffffffffffffffffffffffffff168152602001908152602001600020819055508173ffffffffffffffffffffffffffffffffffffffff168373ffffffffffffffffffffffffffffffffffffffff167f8c5be1e5ebec7d5bd14f71427d1e84f3dd0314c0f7b2291e5b200ac8c7c3b925836040518082815260200191505060405180910390a3505050565b600073ffffffffffffffffffffffffffffffffffffffff168373ffffffffffffffffffffffffffffffffffffffff161415611de4576040517f08c379a0000000000000000000000000000000000000000000000000000000008152600401808060200182810382526025815260200180615cd36025913960400191505060405180910390fd5b600073ffffffffffffffffffffffffffffffffffffffff168273ffffffffffffffffffffffffffffffffffffffff161415611e6a576040517f08c379a0000000000000000000000000000000000000000000000000000000008152600401808060200182810382526023815260200180615a426023913960400191505060405180910390fd5b611e7583838361353b565b611ee181604051806060016040528060268152602001615ac460269139603b60008773ffffffffffffffffffffffffffffffffffffffff1673ffffffffffffffffffffffffffffffffffffffff168152602001908152602001600020546120239092919063ffffffff16565b603b60008573ffffffffffffffffffffffffffffffffffffffff1673ffffffffffffffffffffffffffffffffffffffff16815260200190815260200160002081905550611f7681603b60008573ffffffffffffffffffffffffffffffffffffffff1673ffffffffffffffffffffffffffffffffffffffff1681526020019081526020016000205461291990919063ffffffff16565b603b60008473ffffffffffffffffffffffffffffffffffffffff1673ffffffffffffffffffffffffffffffffffffffff168152602001908152602001600020819055508173ffffffffffffffffffffffffffffffffffffffff168373ffffffffffffffffffffffffffffffffffffffff167fddf252ad1be2c89b69c2b068fc378daa952ba7f163c4a11628f55a4df523b3ef836040518082815260200191505060405180910390a3505050565b60008383111582906120d0576040517f08c379a00000000000000000000000000000000000000000000000000000000081526004018080602001828103825283818151815260200191508051906020019080838360005b8381101561209557808201518184015260208101905061207a565b50505050905090810190601f1680156120c25780820380516001836020036101000a031916815260200191505b509250505060405180910390fd5b5082840390509392505050565b6000808314156120f0576000905061215d565b600082840290508284828161210157fe5b0414612158576040517f08c379a0000000000000000000000000000000000000000000000000000000008152600401808060200182810382526021815260200180615c8a6021913960400191505060405180910390fd5b809150505b92915050565b60006121a583836040518060400160405280601a81526020017f536166654d6174683a206469766973696f6e206279207a65726f000000000000815250613540565b905092915050565b6122b082826040516024018083815260200180602001828103825283818151815260200191508051906020019080838360005b838110156121fb5780820151818401526020810190506121e0565b50505050905090810190601f1680156122285780820380516001836020036101000a031916815260200191505b5093505050506040516020818303038152906040527f0fa3f345000000000000000000000000000000000000000000000000000000007bffffffffffffffffffffffffffffffffffffffffffffffffffffffff19166020820180517bffffffffffffffffffffffffffffffffffffffffffffffffffffffff8381831617835250505050613606565b5050565b6123af816040516024018080602001828103825283818151815260200191508051906020019080838360005b838110156122fb5780820151818401526020810190506122e0565b50505050905090810190601f1680156123285780820380516001836020036101000a031916815260200191505b50925050506040516020818303038152906040527f41304fac000000000000000000000000000000000000000000000000000000007bffffffffffffffffffffffffffffffffffffffffffffffffffffffff19166020820180517bffffffffffffffffffffffffffffffffffffffffffffffffffffffff8381831617835250505050613606565b50565b60055481116123c057612874565b6123fe6040518060400160405280601f81526020017f416d6f756e74207761736e2774206c657373207468616e20646f726d616e74008152506122b4565b6000600360009054906101000a900473ffffffffffffffffffffffffffffffffffffffff1673ffffffffffffffffffffffffffffffffffffffff1663adc3ca20600460009054906101000a900473ffffffffffffffffffffffffffffffffffffffff1660008054906101000a900473ffffffffffffffffffffffffffffffffffffffff16856040518463ffffffff1660e01b8152600401808473ffffffffffffffffffffffffffffffffffffffff1681526020018373ffffffffffffffffffffffffffffffffffffffff1681526020018281526020019350505050602060405180830381600087803b1580156124f357600080fd5b505af1158015612507573d6000803e3d6000fd5b505050506040513d602081101561251d57600080fd5b8101908080519060200190929190505050905061256f6040518060400160405280600a81526020017f4d617820626f72726f770000000000000000000000000000000000000000000081525082612a60565b60006126a66002600360009054906101000a900473ffffffffffffffffffffffffffffffffffffffff1673ffffffffffffffffffffffffffffffffffffffff1663b6da49d4600460009054906101000a900473ffffffffffffffffffffffffffffffffffffffff1673a0b86991c6218b36c1d19d4a2e9eb0ce3606eb48876040518463ffffffff1660e01b8152600401808473ffffffffffffffffffffffffffffffffffffffff1681526020018373ffffffffffffffffffffffffffffffffffffffff1681526020018281526020019350505050602060405180830381600087803b15801561265d57600080fd5b505af1158015612671573d6000803e3d6000fd5b505050506040513d602081101561268757600080fd5b810190808051906020019092919050505061216390919063ffffffff16565b90506126e76040518060400160405280600381526020017f447565000000000000000000000000000000000000000000000000000000000081525082612a60565b6127266040518060400160405280600481526020017f55534443000000000000000000000000000000000000000000000000000000008152508261362f565b6127656040518060400160405280600881526020017f576974686472657700000000000000000000000000000000000000000000000081525082612a60565b6127a6600460009054906101000a900473ffffffffffffffffffffffffffffffffffffffff1673a0b86991c6218b36c1d19d4a2e9eb0ce3606eb488361371f565b6127e56040518060400160405280600681526020017f526570616964000000000000000000000000000000000000000000000000000081525082612a60565b612832600460009054906101000a900473ffffffffffffffffffffffffffffffffffffffff1660008054906101000a900473ffffffffffffffffffffffffffffffffffffffff1685613969565b6128716040518060400160405280600881526020017f576974686472657700000000000000000000000000000000000000000000000081525084612a60565b50505b50565b6129148363a9059cbb60e01b8484604051602401808373ffffffffffffffffffffffffffffffffffffffff16815260200182815260200192505050604051602081830303815290604052907bffffffffffffffffffffffffffffffffffffffffffffffffffffffff19166020820180517bffffffffffffffffffffffffffffffffffffffffffffffffffffffff8381831617835250505050613afb565b505050565b600080828401905083811015612997576040517f08c379a000000000000000000000000000000000000000000000000000000000815260040180806020018281038252601b8152602001807f536166654d6174683a206164646974696f6e206f766572666c6f77000000000081525060200191505060405180910390fd5b8091505092915050565b600073c6bf8c8a55f77686720e0a88e2fd1feef58ddf4a73ffffffffffffffffffffffffffffffffffffffff166370a08231306040518263ffffffff1660e01b8152600401808273ffffffffffffffffffffffffffffffffffffffff168152602001915050602060405180830381600087803b158015612a2057600080fd5b505af1158015612a34573d6000803e3d6000fd5b505050506040513d6020811015612a4a57600080fd5b8101908080519060200190929190505050905090565b612b6382826040516024018080602001838152602001828103825284818151815260200191508051906020019080838360005b83811015612aae578082015181840152602081019050612a93565b50505050905090810190601f168015612adb5780820380516001836020036101000a031916815260200191505b5093505050506040516020818303038152906040527f9710a9d0000000000000000000000000000000000000000000000000000000007bffffffffffffffffffffffffffffffffffffffffffffffffffffffff19166020820180517bffffffffffffffffffffffffffffffffffffffffffffffffffffffff8381831617835250505050613606565b5050565b6000600360009054906101000a900473ffffffffffffffffffffffffffffffffffffffff169050612bdf600460009054906101000a900473ffffffffffffffffffffffffffffffffffffffff16600160009054906101000a900473ffffffffffffffffffffffffffffffffffffffff16600554613bea565b6000612c0c600160009054906101000a900473ffffffffffffffffffffffffffffffffffffffff166132ef565b905060008273ffffffffffffffffffffffffffffffffffffffff1663adc3ca20600460009054906101000a900473ffffffffffffffffffffffffffffffffffffffff1660008054906101000a900473ffffffffffffffffffffffffffffffffffffffff16856040518463ffffffff1660e01b8152600401808473ffffffffffffffffffffffffffffffffffffffff1681526020018373ffffffffffffffffffffffffffffffffffffffff1681526020018281526020019350505050602060405180830381600087803b158015612ce157600080fd5b505af1158015612cf5573d6000803e3d6000fd5b505050506040513d6020811015612d0b57600080fd5b8101908080519060200190929190505050905060008373ffffffffffffffffffffffffffffffffffffffff1663b6da49d4600460009054906101000a900473ffffffffffffffffffffffffffffffffffffffff1673a0b86991c6218b36c1d19d4a2e9eb0ce3606eb48856040518463ffffffff1660e01b8152600401808473ffffffffffffffffffffffffffffffffffffffff1681526020018373ffffffffffffffffffffffffffffffffffffffff1681526020018281526020019350505050602060405180830381600087803b158015612de557600080fd5b505af1158015612df9573d6000803e3d6000fd5b505050506040513d6020811015612e0f57600080fd5b81019080805190602001909291905050509050600654811115612e3a57612e396006548203614084565b5b806006541115612e5257612e5181600654036141c8565b5b600060058190555050505050565b6000612e8164e8d4a51000612e736129a1565b61216390919063ffffffff16565b90506000612ec5600460009054906101000a900473ffffffffffffffffffffffffffffffffffffffff1673a0b86991c6218b36c1d19d4a2e9eb0ce3606eb4861426b565b905060006007548311612ed9576000612eef565b612eee6007548461432290919063ffffffff16565b5b905060006006548311612f03576000612f19565b612f186006548461432290919063ffffffff16565b5b90506000821415612f2d5750505050613063565b612f6c6040518060400160405280600481526020017f55534443000000000000000000000000000000000000000000000000000000008152508361362f565b81811115612fbe57612fb5600460009054906101000a900473ffffffffffffffffffffffffffffffffffffffff1673a0b86991c6218b36c1d19d4a2e9eb0ce3606eb488461371f565b50505050613063565b612fff600460009054906101000a900473ffffffffffffffffffffffffffffffffffffffff1673a0b86991c6218b36c1d19d4a2e9eb0ce3606eb488361371f565b600061300c82840361436c565b905061305d600460009054906101000a900473ffffffffffffffffffffffffffffffffffffffff16600160009054906101000a900473ffffffffffffffffffffffffffffffffffffffff1683613bea565b50505050505b565b613120846323b872dd60e01b858585604051602401808473ffffffffffffffffffffffffffffffffffffffff1681526020018373ffffffffffffffffffffffffffffffffffffffff1681526020018281526020019350505050604051602081830303815290604052907bffffffffffffffffffffffffffffffffffffffffffffffffffffffff19166020820180517bffffffffffffffffffffffffffffffffffffffffffffffffffffffff8381831617835250505050613afb565b50505050565b600073ffffffffffffffffffffffffffffffffffffffff168273ffffffffffffffffffffffffffffffffffffffff1614156131c9576040517f08c379a000000000000000000000000000000000000000000000000000000000815260040180806020018281038252601f8152602001807f45524332303a206d696e7420746f20746865207a65726f20616464726573730081525060200191505060405180910390fd5b6131d56000838361353b565b6131ea81603d5461291990919063ffffffff16565b603d8190555061324281603b60008573ffffffffffffffffffffffffffffffffffffffff1673ffffffffffffffffffffffffffffffffffffffff1681526020019081526020016000205461291990919063ffffffff16565b603b60008473ffffffffffffffffffffffffffffffffffffffff1673ffffffffffffffffffffffffffffffffffffffff168152602001908152602001600020819055508173ffffffffffffffffffffffffffffffffffffffff16600073ffffffffffffffffffffffffffffffffffffffff167fddf252ad1be2c89b69c2b068fc378daa952ba7f163c4a11628f55a4df523b3ef836040518082815260200191505060405180910390a35050565b60008173ffffffffffffffffffffffffffffffffffffffff16633af9e669306040518263ffffffff1660e01b8152600401808273ffffffffffffffffffffffffffffffffffffffff168152602001915050602060405180830381600087803b15801561335a57600080fd5b505af115801561336e573d6000803e3d6000fd5b505050506040513d602081101561338457600080fd5b81019080805190602001909291905050509050919050565b60008082840190508381101561341a576040517f08c379a000000000000000000000000000000000000000000000000000000000815260040180806020018281038252601b8152602001807f536166654d6174683a206164646974696f6e206f766572666c6f77000000000081525060200191505060405180910390fd5b8091505092915050565b600860029054906101000a900460ff16806134435750613442614490565b5b8061345b5750600860019054906101000a900460ff16155b6134b0576040517f08c379a000000000000000000000000000000000000000000000000000000000815260040180806020018281038252602e815260200180615c11602e913960400191505060405180910390fd5b6000600860029054906101000a900460ff161590508015613502576001600860026101000a81548160ff0219169083151502179055506001600860016101000a81548160ff0219169083151502179055505b61350a6144a1565b61351483836145a4565b8015613536576000600860026101000a81548160ff0219169083151502179055505b505050565b505050565b600080831182906135ec576040517f08c379a00000000000000000000000000000000000000000000000000000000081526004018080602001828103825283818151815260200191508051906020019080838360005b838110156135b1578082015181840152602081019050613596565b50505050905090810190601f1680156135de5780820380516001836020036101000a031916815260200191505b509250505060405180910390fd5b5060008385816135f857fe5b049050809150509392505050565b60008151905060006a636f6e736f6c652e6c6f679050602083016000808483855afa5050505050565b73c6bf8c8a55f77686720e0a88e2fd1feef58ddf4a73ffffffffffffffffffffffffffffffffffffffff166330b39a6283836040518363ffffffff1660e01b81526004018080602001838152602001828103825284818151815260200191508051906020019080838360005b838110156136b657808201518184015260208101905061369b565b50505050905090810190601f1680156136e35780820380516001836020036101000a031916815260200191505b509350505050600060405180830381600087803b15801561370357600080fd5b505af1158015613717573d6000803e3d6000fd5b505050505050565b600061372b84846146f3565b90508073ffffffffffffffffffffffffffffffffffffffff16636f307dc36040518163ffffffff1660e01b815260040160206040518083038186803b15801561377357600080fd5b505afa158015613787573d6000803e3d6000fd5b505050506040513d602081101561379d57600080fd5b810190808051906020019092919050505073ffffffffffffffffffffffffffffffffffffffff1663095ea7b382846040518363ffffffff1660e01b8152600401808373ffffffffffffffffffffffffffffffffffffffff16815260200182815260200192505050602060405180830381600087803b15801561381e57600080fd5b505af1158015613832573d6000803e3d6000fd5b505050506040513d602081101561384857600080fd5b81019080805190602001909291905050505060008173ffffffffffffffffffffffffffffffffffffffff16630e752702846040518263ffffffff1660e01b815260040180828152602001915050602060405180830381600087803b1580156138af57600080fd5b505af11580156138c3573d6000803e3d6000fd5b505050506040513d60208110156138d957600080fd5b8101908080519060200190929190505050905060008114613962576040517f08c379a00000000000000000000000000000000000000000000000000000000081526004018080602001828103825260138152602001807f4345726332303a205265706179206572726f720000000000000000000000000081525060200191505060405180910390fd5b5050505050565b60008373ffffffffffffffffffffffffffffffffffffffff166331ff47fa846040518263ffffffff1660e01b8152600401808273ffffffffffffffffffffffffffffffffffffffff16815260200191505060206040518083038186803b1580156139d257600080fd5b505afa1580156139e6573d6000803e3d6000fd5b505050506040513d60208110156139fc57600080fd5b810190808051906020019092919050505073ffffffffffffffffffffffffffffffffffffffff1663852a12e3836040518263ffffffff1660e01b815260040180828152602001915050602060405180830381600087803b158015613a5f57600080fd5b505af1158015613a73573d6000803e3d6000fd5b505050506040513d6020811015613a8957600080fd5b8101908080519060200190929190505050905060008114613af5576040517f08c379a0000000000000000000000000000000000000000000000000000000008152600401808060200182810382526023815260200180615cf86023913960400191505060405180910390fd5b50505050565b6060613b5d826040518060400160405280602081526020017f5361666545524332303a206c6f772d6c6576656c2063616c6c206661696c65648152508573ffffffffffffffffffffffffffffffffffffffff1661479f9092919063ffffffff16565b9050600081511115613be557808060200190516020811015613b7e57600080fd5b8101908080519060200190929190505050613be4576040517f08c379a000000000000000000000000000000000000000000000000000000000815260040180806020018281038252602a815260200180615d3f602a913960400191505060405180910390fd5b5b505050565b600082905060008490508173ffffffffffffffffffffffffffffffffffffffff16636f307dc36040518163ffffffff1660e01b815260040160206040518083038186803b158015613c3a57600080fd5b505afa158015613c4e573d6000803e3d6000fd5b505050506040513d6020811015613c6457600080fd5b810190808051906020019092919050505073ffffffffffffffffffffffffffffffffffffffff1663095ea7b385856040518363ffffffff1660e01b8152600401808373ffffffffffffffffffffffffffffffffffffffff16815260200182815260200192505050602060405180830381600087803b158015613ce557600080fd5b505af1158015613cf9573d6000803e3d6000fd5b505050506040513d6020811015613d0f57600080fd5b81019080805190602001909291905050505060008273ffffffffffffffffffffffffffffffffffffffff1663a0712d68856040518263ffffffff1660e01b815260040180828152602001915050602060405180830381600087803b158015613d7657600080fd5b505af1158015613d8a573d6000803e3d6000fd5b505050506040513d6020811015613da057600080fd5b8101908080519060200190929190505050905060008114613e0c576040517f08c379a0000000000000000000000000000000000000000000000000000000008152600401808060200182810382526024815260200180615d696024913960400191505060405180910390fd5b6060600167ffffffffffffffff81118015613e2657600080fd5b50604051908082528060200260200182016040528015613e555781602001602082028036833780820191505090505b5090508581600081518110613e6657fe5b602002602001019073ffffffffffffffffffffffffffffffffffffffff16908173ffffffffffffffffffffffffffffffffffffffff168152505060608373ffffffffffffffffffffffffffffffffffffffff1663c2998238836040518263ffffffff1660e01b81526004018080602001828103825283818151815260200191508051906020019060200280838360005b83811015613f11578082015181840152602081019050613ef6565b5050505090500192505050600060405180830381600087803b158015613f3657600080fd5b505af1158015613f4a573d6000803e3d6000fd5b505050506040513d6000823e3d601f19601f820116820180604052506020811015613f7457600080fd5b8101908080516040519392919084640100000000821115613f9457600080fd5b83820191506020820185811115613faa57600080fd5b8251866020820283011164010000000082111715613fc757600080fd5b8083526020830192505050908051906020019060200280838360005b83811015613ffe578082015181840152602081019050613fe3565b50505050905001604052505050905060008160008151811061401c57fe5b60200260200101511461407a576040517f08c379a0000000000000000000000000000000000000000000000000000000008152600401808060200182810382526024815260200180615b376024913960400191505060405180910390fd5b5050505050505050565b6140c5600460009054906101000a900473ffffffffffffffffffffffffffffffffffffffff1673a0b86991c6218b36c1d19d4a2e9eb0ce3606eb48836147b7565b8060066000828254019250508190555061411b6040518060400160405280600c81526020017f526172692042616c616e636500000000000000000000000000000000000000008152506141166129a1565b612a60565b61416f6040518060400160405280600481526020017f555344430000000000000000000000000000000000000000000000000000000081525073a0b86991c6218b36c1d19d4a2e9eb0ce3606eb48836148b1565b806007600082825401925050819055506141c56040518060400160405280600c81526020017f526172692042616c616e636500000000000000000000000000000000000000008152506141c06129a1565b612a60565b50565b6142076040518060400160405280600481526020017f55534443000000000000000000000000000000000000000000000000000000008152508261362f565b80600760008282540392505081905550614258600460009054906101000a900473ffffffffffffffffffffffffffffffffffffffff1673a0b86991c6218b36c1d19d4a2e9eb0ce3606eb488361371f565b8060066000828254039250508190555050565b600061427783836146f3565b73ffffffffffffffffffffffffffffffffffffffff166317bfdfbc306040518263ffffffff1660e01b8152600401808273ffffffffffffffffffffffffffffffffffffffff168152602001915050602060405180830381600087803b1580156142df57600080fd5b505af11580156142f3573d6000803e3d6000fd5b505050506040513d602081101561430957600080fd5b8101908080519060200190929190505050905092915050565b600061436483836040518060400160405280601e81526020017f536166654d6174683a207375627472616374696f6e206f766572666c6f770000815250614a63565b905092915050565b60006060600267ffffffffffffffff8111801561438857600080fd5b506040519080825280602002602001820160405280156143b75781602001602082028036833780820191505090505b50905073a0b86991c6218b36c1d19d4a2e9eb0ce3606eb48816000815181106143dc57fe5b602002602001019073ffffffffffffffffffffffffffffffffffffffff16908173ffffffffffffffffffffffffffffffffffffffff168152505060008054906101000a900473ffffffffffffffffffffffffffffffffffffffff168160018151811061444457fe5b602002602001019073ffffffffffffffffffffffffffffffffffffffff16908173ffffffffffffffffffffffffffffffffffffffff16815250506144888184614b23565b915050919050565b600061449b30614d14565b15905090565b600860029054906101000a900460ff16806144c057506144bf614490565b5b806144d85750600860019054906101000a900460ff16155b61452d576040517f08c379a000000000000000000000000000000000000000000000000000000000815260040180806020018281038252602e815260200180615c11602e913960400191505060405180910390fd5b6000600860029054906101000a900460ff16159050801561457f576001600860026101000a81548160ff0219169083151502179055506001600860016101000a81548160ff0219169083151502179055505b80156145a1576000600860026101000a81548160ff0219169083151502179055505b50565b600860029054906101000a900460ff16806145c357506145c2614490565b5b806145db5750600860019054906101000a900460ff16155b614630576040517f08c379a000000000000000000000000000000000000000000000000000000000815260040180806020018281038252602e815260200180615c11602e913960400191505060405180910390fd5b6000600860029054906101000a900460ff161590508015614682576001600860026101000a81548160ff0219169083151502179055506001600860016101000a81548160ff0219169083151502179055505b82603e90805190602001906146989291906159a4565b5081603f90805190602001906146af9291906159a4565b506012604060006101000a81548160ff021916908360ff16021790555080156146ee576000600860026101000a81548160ff0219169083151502179055505b505050565b60008273ffffffffffffffffffffffffffffffffffffffff166331ff47fa836040518263ffffffff1660e01b8152600401808273ffffffffffffffffffffffffffffffffffffffff16815260200191505060206040518083038186803b15801561475c57600080fd5b505afa158015614770573d6000803e3d6000fd5b505050506040513d602081101561478657600080fd5b8101908080519060200190929190505050905092915050565b60606147ae8484600085614d27565b90509392505050565b60006147c384846146f3565b73ffffffffffffffffffffffffffffffffffffffff1663c5ebeaec836040518263ffffffff1660e01b815260040180828152602001915050602060405180830381600087803b15801561481557600080fd5b505af1158015614829573d6000803e3d6000fd5b505050506040513d602081101561483f57600080fd5b81019080805190602001909291905050509050600081146148ab576040517f08c379a0000000000000000000000000000000000000000000000000000000008152600401808060200182810382526023815260200180615c676023913960400191505060405180910390fd5b50505050565b8173ffffffffffffffffffffffffffffffffffffffff1663095ea7b373c6bf8c8a55f77686720e0a88e2fd1feef58ddf4a836040518363ffffffff1660e01b8152600401808373ffffffffffffffffffffffffffffffffffffffff16815260200182815260200192505050602060405180830381600087803b15801561493657600080fd5b505af115801561494a573d6000803e3d6000fd5b505050506040513d602081101561496057600080fd5b81019080805190602001909291905050505073c6bf8c8a55f77686720e0a88e2fd1feef58ddf4a73ffffffffffffffffffffffffffffffffffffffff16638e27d71984836040518363ffffffff1660e01b81526004018080602001838152602001828103825284818151815260200191508051906020019080838360005b838110156149f95780820151818401526020810190506149de565b50505050905090810190601f168015614a265780820380516001836020036101000a031916815260200191505b509350505050600060405180830381600087803b158015614a4657600080fd5b505af1158015614a5a573d6000803e3d6000fd5b50505050505050565b6000838311158290614b10576040517f08c379a00000000000000000000000000000000000000000000000000000000081526004018080602001828103825283818151815260200191508051906020019080838360005b83811015614ad5578082015181840152602081019050614aba565b50505050905090810190601f168015614b025780820380516001836020036101000a031916815260200191505b509250505060405180910390fd5b5060008385039050809150509392505050565b6000808211614b7d576040517f08c379a0000000000000000000000000000000000000000000000000000000008152600401808060200182810382526025815260200180615b966025913960400191505060405180910390fd5b82600181518110614b8a57fe5b602002602001015173ffffffffffffffffffffffffffffffffffffffff1683600081518110614bb557fe5b602002602001015173ffffffffffffffffffffffffffffffffffffffff161415614c2a576040517f08c379a0000000000000000000000000000000000000000000000000000000008152600401808060200182810382526028815260200180615b0f6028913960400191505060405180910390fd5b6060614c4b735c69bee701ef814a2b6a3edd4b1652cb9cc5aa6f8486614ed0565b90506000614c96735c69bee701ef814a2b6a3edd4b1652cb9cc5aa6f86600081518110614c7457fe5b602002602001015187600181518110614c8957fe5b6020026020010151615048565b9050614ceb8183600081518110614ca957fe5b602002602001015187600081518110614cbe57fe5b602002602001015173ffffffffffffffffffffffffffffffffffffffff166128779092919063ffffffff16565b614cf58286615161565b81600181518110614d0257fe5b60200260200101519250505092915050565b600080823b905060008111915050919050565b606082471015614d82576040517f08c379a0000000000000000000000000000000000000000000000000000000008152600401808060200182810382526026815260200180615bbb6026913960400191505060405180910390fd5b614d8b856153dd565b614dfd576040517f08c379a000000000000000000000000000000000000000000000000000000000815260040180806020018281038252601d8152602001807f416464726573733a2063616c6c20746f206e6f6e2d636f6e747261637400000081525060200191505060405180910390fd5b600060608673ffffffffffffffffffffffffffffffffffffffff1685876040518082805190602001908083835b60208310614e4d5780518252602082019150602081019050602083039250614e2a565b6001836020036101000a03801982511681845116808217855250505050505090500191505060006040518083038185875af1925050503d8060008114614eaf576040519150601f19603f3d011682016040523d82523d6000602084013e614eb4565b606091505b5091509150614ec48282866153f0565b92505050949350505050565b6060600282511015614f4a576040517f08c379a000000000000000000000000000000000000000000000000000000000815260040180806020018281038252601e8152602001807f556e697377617056324c6962726172793a20494e56414c49445f50415448000081525060200191505060405180910390fd5b815167ffffffffffffffff81118015614f6257600080fd5b50604051908082528060200260200182016040528015614f915781602001602082028036833780820191505090505b5090508281600081518110614fa257fe5b60200260200101818152505060005b600183510381101561504057600080614ff487868581518110614fd057fe5b6020026020010151876001870181518110614fe757fe5b60200260200101516154bc565b9150915061501684848151811061500757fe5b602002602001015183836155e5565b84600185018151811061502557fe5b60200260200101818152505050508080600101915050614fb1565b509392505050565b60008060006150578585615715565b91509150858282604051602001808373ffffffffffffffffffffffffffffffffffffffff1660601b81526014018273ffffffffffffffffffffffffffffffffffffffff1660601b8152601401925050506040516020818303038152906040528051906020012060405160200180807fff000000000000000000000000000000000000000000000000000000000000008152506001018373ffffffffffffffffffffffffffffffffffffffff1660601b8152601401828152602001807f96e8ac4277198ff8b6f785478aa9a39f403cb768dd02cbee326c3e7da348845f815250602001925050506040516020818303038152906040528051906020012060001c925050509392505050565b60005b60018251038110156153d85760008083838151811061517f57fe5b602002602001015184600185018151811061519657fe5b60200260200101519150915060006151ae8383615715565b50905060008660018601815181106151c257fe5b602002602001015190506000808373ffffffffffffffffffffffffffffffffffffffff168673ffffffffffffffffffffffffffffffffffffffff161461520a5782600061520e565b6000835b91509150600060028951038810615225573061525b565b61525a735c69bee701ef814a2b6a3edd4b1652cb9cc5aa6f878b60028c018151811061524d57fe5b6020026020010151615048565b5b905061527c735c69bee701ef814a2b6a3edd4b1652cb9cc5aa6f8888615048565b73ffffffffffffffffffffffffffffffffffffffff1663022c0d9f848484600067ffffffffffffffff811180156152b257600080fd5b506040519080825280601f01601f1916602001820160405280156152e55781602001600182028036833780820191505090505b506040518563ffffffff1660e01b8152600401808581526020018481526020018373ffffffffffffffffffffffffffffffffffffffff16815260200180602001828103825283818151815260200191508051906020019080838360005b8381101561535d578082015181840152602081019050615342565b50505050905090810190601f16801561538a5780820380516001836020036101000a031916815260200191505b5095505050505050600060405180830381600087803b1580156153ac57600080fd5b505af11580156153c0573d6000803e3d6000fd5b50505050505050505050508080600101915050615164565b505050565b600080823b905060008111915050919050565b60608315615400578290506154b5565b6000835111156154135782518084602001fd5b816040517f08c379a00000000000000000000000000000000000000000000000000000000081526004018080602001828103825283818151815260200191508051906020019080838360005b8381101561547a57808201518184015260208101905061545f565b50505050905090810190601f1680156154a75780820380516001836020036101000a031916815260200191505b509250505060405180910390fd5b9392505050565b60008060006154cb8585615715565b5090506000806154dc888888615048565b73ffffffffffffffffffffffffffffffffffffffff16630902f1ac6040518163ffffffff1660e01b815260040160606040518083038186803b15801561552157600080fd5b505afa158015615535573d6000803e3d6000fd5b505050506040513d606081101561554b57600080fd5b81019080805190602001909291908051906020019092919080519060200190929190505050506dffffffffffffffffffffffffffff1691506dffffffffffffffffffffffffffff1691508273ffffffffffffffffffffffffffffffffffffffff168773ffffffffffffffffffffffffffffffffffffffff16146155cf5780826155d2565b81815b8095508196505050505050935093915050565b600080841161563f576040517f08c379a000000000000000000000000000000000000000000000000000000000815260040180806020018281038252602b815260200180615d8d602b913960400191505060405180910390fd5b60008311801561564f5750600082115b6156a4576040517f08c379a0000000000000000000000000000000000000000000000000000000008152600401808060200182810382526028815260200180615c3f6028913960400191505060405180910390fd5b60006156bb6103e58661588c90919063ffffffff16565b905060006156d2848361588c90919063ffffffff16565b905060006156fd836156ef6103e88961588c90919063ffffffff16565b61592190919063ffffffff16565b905080828161570857fe5b0493505050509392505050565b6000808273ffffffffffffffffffffffffffffffffffffffff168473ffffffffffffffffffffffffffffffffffffffff16141561579d576040517f08c379a0000000000000000000000000000000000000000000000000000000008152600401808060200182810382526025815260200180615aea6025913960400191505060405180910390fd5b8273ffffffffffffffffffffffffffffffffffffffff168473ffffffffffffffffffffffffffffffffffffffff16106157d75782846157da565b83835b8092508193505050600073ffffffffffffffffffffffffffffffffffffffff168273ffffffffffffffffffffffffffffffffffffffff161415615885576040517f08c379a000000000000000000000000000000000000000000000000000000000815260040180806020018281038252601e8152602001807f556e697377617056324c6962726172793a205a45524f5f41444452455353000081525060200191505060405180910390fd5b9250929050565b6000808214806158a957508282838502925082816158a657fe5b04145b61591b576040517f08c379a00000000000000000000000000000000000000000000000000000000081526004018080602001828103825260148152602001807f64732d6d6174682d6d756c2d6f766572666c6f7700000000000000000000000081525060200191505060405180910390fd5b92915050565b600082828401915081101561599e576040517f08c379a00000000000000000000000000000000000000000000000000000000081526004018080602001828103825260148152602001807f64732d6d6174682d6164642d6f766572666c6f7700000000000000000000000081525060200191505060405180910390fd5b92915050565b828054600181600116156101000203166002900490600052602060002090601f016020900481019282601f106159e557805160ff1916838001178555615a13565b82800160010185558215615a13579182015b82811115615a125782518255916020019190600101906159f7565b5b509050615a209190615a24565b5090565b5b80821115615a3d576000816000905550600101615a25565b509056fe45524332303a207472616e7366657220746f20746865207a65726f206164647265737345524332303a20617070726f766520746f20746865207a65726f20616464726573735261726954616e6b44656c65676174653a205769746864726177616c20616d6f756e74206d757374206265206c657373207468616e2062616c616e636545524332303a207472616e7366657220616d6f756e7420657863656564732062616c616e6365556e697377617056324c6962726172793a204944454e544943414c5f414444524553534553556e69436f6e74726f6c6c65723a204173736574732063616e6e6f74206265207468652073616d65436f6d7074726f6c6c65723a204661696c656420746f20656e746572206d61726b6574735261726946756e6454616e6b3a2046756e6374696f6e2063616e206f6e6c792062652063616c6c65642062792074686520726562616c616e636572556e6973776170436f6e74726f6c6c65723a20416d6f756e742063616e6e6f742062652030416464726573733a20696e73756666696369656e742062616c616e636520666f722063616c6c5261726954616e6b44656c65676174653a204d696e696d756d204465706f73697420416d6f756e742069732024353030496e697469616c697a61626c653a20636f6e747261637420697320616c726561647920696e697469616c697a6564556e697377617056324c6962726172793a20494e53554646494349454e545f4c49515549444954594345726332303a204661696c656420746f20626f72726f7720756e6465726c79696e67536166654d6174683a206d756c7469706c69636174696f6e206f766572666c6f7745524332303a207472616e7366657220616d6f756e74206578636565647320616c6c6f77616e636545524332303a207472616e736665722066726f6d20746865207a65726f20616464726573734345726332303a204661696c656420746f2072656465656d20756e6465726c79696e6745524332303a20617070726f76652066726f6d20746865207a65726f20616464726573735361666545524332303a204552433230206f7065726174696f6e20646964206e6f7420737563636565644345726332303a204661696c656420746f206465706f73697420756e6465726c79696e67556e697377617056324c6962726172793a20494e53554646494349454e545f494e5055545f414d4f554e5445524332303a2064656372656173656420616c6c6f77616e63652062656c6f77207a65726fa26469706673582212206e3aaa9fafcd7945d1d3c22ec4f74c8f9d478b79b4fd5fc99216d3d43530bf2564736f6c63430007030033","abi":[{"anonymous":false,"inputs":[{"indexed":true,"internalType":"address","name":"owner","type":"address"},{"indexed":true,"internalType":"address","name":"spender","type":"address"},{"indexed":false,"internalType":"uint256","name":"value","type":"uint256"}],"name":"Approval","type":"event"},{"anonymous":false,"inputs":[{"indexed":true,"internalType":"address","name":"from","type":"address"},{"indexed":true,"internalType":"address","name":"to","type":"address"},{"indexed":false,"internalType":"uint256","name":"value","type":"uint256"}],"name":"Transfer","type":"event"},{"inputs":[{"internalType":"address","name":"owner","type":"address"},{"internalType":"address","name":"spender","type":"address"}],"name":"allowance","outputs":[{"internalType":"uint256","name":"","type":"uint256"}],"stateMutability":"view","type":"function"},{"inputs":[{"internalType":"address","name":"spender","type":"address"},{"internalType":"uint256","name":"amount","type":"uint256"}],"name":"approve","outputs":[{"internalType":"bool","name":"","type":"bool"}],"stateMutability":"nonpayable","type":"function"},{"inputs":[{"internalType":"address","name":"account","type":"address"}],"name":"balanceOf","outputs":[{"internalType":"uint256","name":"","type":"uint256"}],"stateMutability":"view","type":"function"},{"inputs":[],"name":"cToken","outputs":[{"internalType":"address","name":"","type":"address"}],"stateMutability":"view","type":"function"},{"inputs":[],"name":"decimals","outputs":[{"internalType":"uint8","name":"","type":"uint8"}],"stateMutability":"view","type":"function"},{"inputs":[{"internalType":"address","name":"spender","type":"address"},{"internalType":"uint256","name":"subtractedValue","type":"uint256"}],"name":"decreaseAllowance","outputs":[{"internalType":"bool","name":"","type":"bool"}],"stateMutability":"nonpayable","type":"function"},{"inputs":[{"internalType":"uint256","name":"amount","type":"uint256"}],"name":"deposit","outputs":[],"stateMutability":"nonpayable","type":"function"},{"inputs":[],"name":"exchangeRateCurrent","outputs":[{"internalType":"uint256","name":"","type":"uint256"}],"stateMutability":"nonpayable","type":"function"},{"inputs":[{"internalType":"address","name":"spender","type":"address"},{"internalType":"uint256","name":"addedValue","type":"uint256"}],"name":"increaseAllowance","outputs":[{"internalType":"bool","name":"","type":"bool"}],"stateMutability":"nonpayable","type":"function"},{"inputs":[{"internalType":"address","name":"_token","type":"address"},{"internalType":"address","name":"_comptroller","type":"address"},{"internalType":"address","name":"_dataProvider","type":"address"}],"name":"initialize","outputs":[],"stateMutability":"nonpayable","type":"function"},{"inputs":[],"name":"name","outputs":[{"internalType":"string","name":"","type":"string"}],"stateMutability":"view","type":"function"},{"inputs":[],"name":"rebalance","outputs":[],"stateMutability":"nonpayable","type":"function"},{"inputs":[],"name":"symbol","outputs":[{"internalType":"string","name":"","type":"string"}],"stateMutability":"view","type":"function"},{"inputs":[],"name":"token","outputs":[{"internalType":"address","name":"","type":"address"}],"stateMutability":"view","type":"function"},{"inputs":[],"name":"totalSupply","outputs":[{"internalType":"uint256","name":"","type":"uint256"}],"stateMutability":"view","type":"function"},{"inputs":[{"internalType":"address","name":"recipient","type":"address"},{"internalType":"uint256","name":"amount","type":"uint256"}],"name":"transfer","outputs":[{"internalType":"bool","name":"","type":"bool"}],"stateMutability":"nonpayable","type":"function"},{"inputs":[{"internalType":"address","name":"sender","type":"address"},{"internalType":"address","name":"recipient","type":"address"},{"internalType":"uint256","name":"amount","type":"uint256"}],"name":"transferFrom","outputs":[{"internalType":"bool","name":"","type":"bool"}],"stateMutability":"nonpayable","type":"function"},{"inputs":[{"internalType":"uint256","name":"amount","type":"uint256"}],"name":"withdraw","outputs":[],"stateMutability":"nonpayable","type":"function"}]}